:020000040800F2
:100000005008002089010008E1010008E101000812
:10001000E1010008E1010008E10100080000000022
:10002000000000000000000000000000E1010008E6
:10003000E101000800000000E1010008E101000802
:10004000E1010008E1010008E1010008E101000808
:10005000E1010008E1010008E1010008E1010008F8
:10006000E1010008E1010008E1010008E1010008E8
:10007000E1010008E1010008E1010008E1010008D8
:10008000E1010008E1010008E1010008E1010008C8
:10009000E1010008E1010008E1010008E1010008B8
:1000A000E1010008E1010008E1010008E1010008A8
:1000B000E1010008E1010008E1010008E101000898
:1000C000E1010008E1010008E1010008E101000888
:1000D000E1010008E1010008E1010008E101000878
:1000E000E1010008E1010008E1010008E101000868
:1000F000E1010008E1010008E1010008E101000858
:10010000E1010008E1010008E1010008E101000847
:10011000E1010008E1010008E1010008E101000837
:10012000E1010008E1010008E1010008E101000827
:10013000E1010008E1010008E1010008E101000817
:10014000E1010008E1010008E1010008E101000807
:10015000E1010008E1010008E1010008E1010008F7
:10016000E1010008E1010008E1010008E1010008E7
:10017000E1010008E1010008E1010008E1010008D7
:10018000E1010008E101000880B582B000AF0F4B2B
:100190007B600F4B3B6007E03B681A1D3A607A6852
:1001A000111D796012681A603B680A4A9342F3D3C2
:1001B00009480A494FF000028842B8BF40F8042BB2
:1001C000FADB00F011F90837BD4680BD5413000872
:1001D00000000020300000203000002050000020EF
:1001E00080B400AFFEE700BF80B483B000AF78609A
:1001F000054A7B68136000231BB218460C37BD46C6
:100200005DF8047B704700BF4C00002080B584B0CF
:1002100000AF03460A46FB8013467B710023FB8137
:100220002E4B1B681846A0210022002300F01EFB65
:100230000346BB81B7F90C30002B01D0BB8947E0E6
:10024000264B1A68FB881B0A9BB2DBB21046194684
:1002500000F088FB0346BB81B7F90C30002B01D0BE
:10026000BB8935E0C82000F0A3F81C4B1A68FB8856
:10027000DBB21046194600F075FB0346BB81B7F9A7
:100280000C30002B01D0BB8922E0C82000F090F890
:10029000124B1A687B791046194600F063FB03463F
:1002A000BB81B7F90C30002B01D0BB8910E0C8200E
:1002B00000F07EF8094B1B68184600F0C5FB0346AA
:1002C000BB81B7F90C30002B01D0BB8900E00023C3
:1002D0001BB218461037BD4680BD00BF4C00002041
:1002E00080B584B000AF03463960FB800023FB81FA
:1002F0002E4B1B681846A0210022002300F0B6FAFE
:100300000346FB81B7F90E30002B01D0FB8947E093
:10031000264B1A68FB881B0A9BB2DBB210461946B3
:1003200000F020FB0346FB81B7F90E30002B01D013
:10033000FB8935E01D4B1A68FB88DBB21046194675
:1003400000F010FB0346FB81B7F90E30002B01D003
:10035000FB8925E04FF47A7000F02AF8134B1B68F4
:100360001846A1210122002300F080FA0346FB81F8
:10037000B7F90E30002B01D0FB8911E04FF49670D5
:1003800000F016F8094B1B68184600F037FB0346CF
:10039000DAB23B681A704FF4167000F009F80023C7
:1003A0001BB218461037BD4680BD00BF4C00002070
:1003B00080B485B000AF78600023FB600BE00023C1
:1003C000FB6002E0FB680133FB60FB68192BF9DD81
:1003D0007B68013B7B607B68002BF0D11437BD4606
:1003E0005DF8047B704700BF80B584B000AF00F0BB
:1003F0009BFC00F0C5FC4FF4A05000F0B7F800F0F3
:1004000087F84148002142F2107200F093F93E480B
:10041000FFF7EAFE0023FB7000237B730A23FB81B6
:100420002BE0FB89DBB20A33DBB2DBB2FA895BB2C9
:1004300010461946FFF7EAFE0346BB607B7B002BA4
:100440000CBF01230023DBB27B73BB68002B06D0FB
:100450002E484FF40051012200F04EFCFEE77B7B5A
:100460002A484FF480511A4600F046FC4FF47A7047
:10047000FFF79EFFFB890133FB81FB89632BD0D9FA
:100480000A23FB812EE00023FB70FA89FB1C104637
:100490001946FFF725FF03467B607B7B002B0CBFD3
:1004A00001230023DBB27B737B68002B05D1FB7833
:1004B0005AB2FB890A339A4206D014484FF40051CD
:1004C000012200F019FCFEE77B7B10484FF48051BD
:1004D0001A4600F011FC4FF4FA70FFF769FFFB8930
:1004E0000133FB81FB89632BCDD94FF4FA70FFF701
:1004F0005FFF06484FF40041012200F0FDFB4FF47E
:10050000FA70FFF755FFFEE700540040000C024070
:1005100080B582B000AF0820012100F0EDF8012382
:100520003B710023BB714FF430433B600123FB71EF
:1005300002237B713B460C48194600F04FFB0A48EA
:100540004FF48051012200F0D7FB07484FF40051CF
:10055000002200F0D1FB04484FF40041002200F0DB
:10056000CBFB0837BD4680BD000C024080B485B08F
:1005700000AF78600023FB60094B9B68FB60FB6861
:1005800023F46043FB607B68DB00FA681343FB6085
:10059000034AFB6893601437BD465DF8047B7047DF
:1005A0000038024080B489B000AF78600023BB619E
:1005B00000237B610023FB6102233B610023FB607E
:1005C0000223BB60484B9B6803F00C03BB61BB6913
:1005D000042B07D0082B09D0002B3FD17B68434A5E
:1005E0001A603FE07B68424A1A603BE03E4B5B6822
:1005F00003F480039B0DFB603B4B5B6803F03F0300
:10060000BB60FB68002B0DD0394ABB68B2FBF3F22C
:10061000354B596847F6C0730B409B0903FB02F347
:10062000FB610CE0314ABB68B2FBF3F22E4B596818
:1006300047F6C0730B409B0903FB02F3FB612A4B97
:100640005B6803F440331B0C01335B003B61FA69C8
:100650003B69B2FBF3F27B681A6003E07B68234AD4
:100660001A6000BF204B9B6803F0F003BB61BB69BD
:100670001B09BB611F4ABB6913441B78DBB27B615A
:100680007B681A687B69DA407B685A60164B9B6806
:1006900003F4E053BB61BB699B0ABB61154ABB69AC
:1006A00013441B78DBB27B617B685A687B69DA4054
:1006B0007B689A600C4B9B6803F46043BB61BB6929
:1006C0005B0BBB610B4ABB6913441B78DBB27B61DC
:1006D0007B685A687B69DA407B68DA602437BD46FC
:1006E0005DF8047B704700BF003802400024F4002E
:1006F00000127A000000002080B483B000AF786060
:100700000B46FB70FB78002B06D00949084B1A6B8F
:100710007B6813430B6306E00549054B1A6B7B6846
:10072000DB4313400B630C37BD465DF8047B704719
:100730000038024080B588B000AFF8600B467A60A0
:10074000FB72FB68444A934221D1444A434B1B6CE1
:1007500043F400131364FB7A184600F095F9404BFC
:100760001A687B689A4202D93D4A7B6813603C4B09
:100770001B683B614FF48043BB830023BB82002393
:100780003B8300237B834BF6FF73FB824AE0FB68CD
:10079000344A934221D1314A304B1B6C43F48003DD
:1007A0001364FB7A184600F0ABF92D4B5A687B684E
:1007B0009A4202D92A4A7B685360294B5B683B61A5
:1007C0004FF48043BB830023BB8200233B83002381
:1007D0007B834BF6FF73FB8224E0FB68224A934243
:1007E00020D11E4A1D4B1B6C43F400031364FB7A9B
:1007F000184600F0B5F91A4B9A687B689A4202D9FC
:10080000174A7B689360164B9B683B614FF48043AB
:10081000BB830023BB8200233B8300237B834BF6F7
:10082000FF73FB82FB681B889BB223F001039AB223
:10083000FB681A8007F11003F868194600F096FB70
:10084000FB681B889BB243F001039AB2FB681A80D5
:100850002037BD4680BD00BF005400400038024034
:100860001000002000580040005C004080B584B0BB
:1008700000AF7860084611461A460346FB700B46E7
:10088000BB7013467B707B681B889BB243F48073FC
:100890009AB27B681A80314BFB6008E0FB68013B31
:1008A000FB60FB68002B02D14FF6FF7350E07B68C2
:1008B0009B8A9BB203F00103002BEFD07B78002BC7
:1008C00007D07B681B889BB243F480639AB27B6835
:1008D0001A80BB78002B1AD1FB7823F00103FB7040
:1008E000FB789AB27B681A821C4BFB6008E0FB68BD
:1008F000013BFB60FB68002B02D14FF6FE7327E043
:100900007B689B8A9BB203F08003002BEFD0BB78FF
:10091000012B1AD1FB7843F00103FB70FB789AB2EC
:100920007B681A820D4BFB6008E0FB68013BFB60B3
:10093000FB68002B02D14FF6FD7309E07868084987
:1009400000F0D6FB0346002BEFD07B681B8B002307
:100950001BB218461037BD4680BD00BF400D0300D6
:100960000200030080B483B000AF78600B46FB70D8
:10097000204B214A1A600BE01E4B1B68013B1D4AAD
:1009800013601C4B1B68002B02D14FF6FE732AE04C
:100990007B689B8A9BB203F08003002B03D1154B2D
:1009A0001B68002BE8D1134B134A1A60FB789AB2EC
:1009B0007B681A820BE00F4B1B68013B0D4A1360EA
:1009C0000C4B1B68002B02D14FF6FE730BE07B68CB
:1009D0009B8A9BB203F08003002B03D1054B1B685D
:1009E000002BE8D100231BB218460C37BD465DF83A
:1009F000047B704730000020400D030080B485B0B8
:100A000000AF78600E4B0F4A1A607B681B8A9BB25E
:100A1000FB737B681B889BB223F480639AB27B686C
:100A20001A807B681B889BB243F400739AB27B6880
:100A30001A80FB7B18461437BD465DF8047B70476F
:100A400030000020400D030080B483B000AF786018
:100A50007B681B889BB243F400739AB27B681A8050
:100A6000002318460C37BD465DF8047B704700BF75
:100A700080B483B000AF78600B467B800C37BD46F6
:100A80005DF8047B704700BF80B584B002AF0346B9
:100A9000FB71FB79002B09D1002300930423019300
:100AA0001548C0210122012300F052FBFB79012BE4
:100AB0000AD101230093042301930F484FF440719E
:100AC0000122012300F044FBFB79022B0AD1012310
:100AD00000930423019308484FF41071012201236D
:100AE00000F036FBFB79032B03D104480421FFF708
:100AF000BFFF0837BD4680BD0004024000540040DF
:100B000080B584B002AF0346FB71FB79012B09D19C
:100B100001230093042301930E48032101220123A2
:100B200000F016FBFB79022B09D10123009304236B
:100B30000193094830210122012300F009FBFB79D0
:100B4000032B03D105480421FFF792FF0837BD4668
:100B500080BD00BF00140240001C0240005800404D
:100B600080B584B002AF0346FB71FB79002B15D131
:100B7000012300930423019314484FF48071012250
:100B8000012300F0E5FA01230093042301931048A8
:100B90004FF400710122012300F0DAFAFB79012BF6
:100BA0000AD101230093042301930A484FF4C07132
:100BB0000122012300F0CCFAFB79032B03D1064874
:100BC0000421FFF755FF0837BD4680BD00000240F5
:100BD00000080240001C0240005C004080B487B066
:100BE00000AF7860396000237B6100233B61002304
:100BF000FB6000237B6176E07B69012202FA03F34C
:100C00003B613B681A683B691340FB60FA683B69CB
:100C10009A4265D17B681A687B695B001946032399
:100C20008B40DB431A407B681A607B681A683B681C
:100C30001B7919467B695B0001FA03F31A437B6851
:100C40001A603B681B79012B03D03B681B79022B90
:100C50002ED17B689A687B695B00194603238B4021
:100C6000DB431A407B689A607B689A683B685B79D3
:100C700019467B695B0001FA03F31A437B689A60AB
:100C80007B685A687B699BB2194601238B40DB4322
:100C90001A407B685A607B685B683A6892791146B3
:100CA0007A6992B201FA02F292B21A437B685A60F0
:100CB0007B68DA687B699BB25B00032101FA03F36E
:100CC000DB431A407B68DA607B68DA683B68DB7973
:100CD00019467B695B0001FA03F31A437B68DA600B
:100CE0007B6901337B617B690F2B85D91C37BD463E
:100CF0005DF8047B704700BF80B483B000AF7860BC
:100D00000B467B8013467B707B78002B03D07B687F
:100D10007A881A8302E07B687A885A830C37BD464A
:100D20005DF8047B704700BF80B500AF114A114BDE
:100D30001B6843F0010313600E4B00229A600D4ABA
:100D40000C4B1B6823F0847323F480331360094B2E
:100D5000094A5A60074A074B1B6823F48023136033
:100D6000044B0022DA6000F087F8044B4FF0006279
:100D70009A6080BD003802401030002400ED00E091
:100D800080B487B000AF00233B6100237B61022366
:100D9000FB600023BB6002237B60324B9B6803F047
:100DA0000C033B613B69042B07D0082B09D0002BB7
:100DB0003FD12D4B2D4A1A603FE02B4B2C4A1A6035
:100DC0003BE0284B5B6803F480039B0DBB60254B25
:100DD0005B6803F03F037B60BB68002B0DD0244AA7
:100DE0007B68B2FBF3F21F4B596847F6C0730B40A8
:100DF0009B0903FB02F37B610CE01C4A7B68B2FB9E
:100E0000F3F2184B596847F6C0730B409B0903FB7C
:100E100002F37B61134B5B6803F440331B0C01331B
:100E20005B00FB607A69FB68B2FBF3F30E4A136068
:100E300003E00D4B0D4A1A6000BF0A4B9B6803F09C
:100E4000F0031B090B4AD35CDBB23B61064B1A680B
:100E50003B6922FA03F3044A13601C37BD465DF870
:100E6000047B7047003802401C0000200024F4007E
:100E700000127A002000002080B483B000AF00236D
:100E80007B6000233B60354A344B1B6843F480335E
:100E90001360324B1B6803F400333B607B68013303
:100EA0007B603B68002B03D17B68B3F5A06FF0D16A
:100EB0002A4B1B6803F40033002B02D001233B6054
:100EC00001E000233B603B68012B42D1234A234BC6
:100ED0001B6C43F080531364214A214B1B6843F47D
:100EE000804313601D4A1D4B9B6893601B4A1B4B3C
:100EF0009B6843F400439360184A184B9B6843F483
:100F0000A0539360154B174A5A60144A134B1B6841
:100F100043F08073136000BF104B1B6803F0007335
:100F2000002BF9D0104B40F205621A600B4A0B4BB4
:100F30009B6823F003039360084A084B9B6843F0C7
:100F40000203936000BF054B9B6803F00C03082B62
:100F5000F9D10C37BD465DF8047B7047003802407C
:100F60000070004008194104003C024080B58AB07E
:100F700000AF786039600023FB8400237B84042366
:100F8000BB84574BFB617B689B88FB84FB8C23F005
:100F90003F03FB8407F10C031846FFF703FB7B6953
:100FA000FB61FB694F4AA2FB03239B0C7B84FA8CF9
:100FB0007B8C1343FB847B68FA8C9A807B681B884C
:100FC0009BB223F001039AB27B681A800023FB8452
:100FD0003B681B68444A934215D83B681B685B001A
:100FE000FA69B2FBF3F3BB84BB8C032B01D8042357
:100FF000BB84FA8CBB8C1343FB847B8C01339AB289
:101000007B681A8440E03B68DB884BF6FF729342B2
:1010100009D13B681A6813465B001344FA69B2FBB6
:10102000F3F3BB840EE03B681A6813469B0013443D
:101030009A001344FA69B2FBF3F3BB84BB8C43F40C
:101040008043BB84BB8CC3F30B03002B03D1BB8C4D
:1010500043F00103BB84BA8CFB8C13439BB26FEA51
:1010600043436FEA5343FB847B8C4FF4967202FB3D
:1010700003F31E4A82FB03129211DB17D31A9BB2B1
:1010800001339AB27B681A847B68FA8C9A837B68F6
:101090001B889BB243F001039AB27B681A807B687D
:1010A0001B88FB84FB8C23F4816323F00203FB8405
:1010B0003B689A883B685B8913439AB2FB8C134365
:1010C000FB847B68FA8C1A803B689A893B681B8991
:1010D00013439AB27B681A812837BD4680BD00BF92
:1010E00000127A0083DE1B43A0860100D34D6210FC
:1010F00080B487B000AF7860396000233B61002383
:10110000FB600023BB600023FB757B689B8A9BB25E
:10111000FB607B681B8B9BB2BB60BB681B04BB6026
:10112000FA68BB68134323F07F433B613A693B682D
:101130001A403B689A4202D10123FB7501E000236B
:10114000FB75FB7D18461C37BD465DF8047B704778
:1011500090B587B002AF7860084611461A4603463C
:101160007B800B467B7013463B707B88002B00D145
:101170003EE0786800F052F80023FB6028E07A88AF
:10118000FB6842FA03F303F00103002B00D11CE0DB
:10119000FB68DA08FB68D9087B68083153F821300E
:1011A000F96801F00701890008460F218140C94311
:1011B0000B4097F82410F86800F007008000814089
:1011C00019437B68083243F82210FB680133FB6047
:1011D000FB680F2BD3D97A887C783B78009397F8FB
:1011E00020300193786811460222234600F02CF843
:1011F0001437BD4690BD00BF80B483B000AF7860A7
:101200007B6803F13F4303F57E039B0A9BB21846BC
:101210000C37BD465DF8047B704700BF80B582B0D7
:1012200000AF78607868FFF7E7FF03461A460123AE
:1012300003FA02F1034A034B1B6B0B43136308379A
:10124000BD4680BD0038024080B584B000AF7860F4
:10125000084611461A4603467B800B467B701346B0
:101260003B707868FFF7C8FF0346BB730023FB732E
:1012700067E07A88FB7B42FA03F303F00103002B5B
:1012800000D15BE0BB7BBA7B314931F8122090B2D0
:10129000FA7B012101FA02F292B201460A4392B2AC
:1012A00091B22B4A22F813107B68DB68FA7B52005C
:1012B000032101FA02F2D2431340397EFA7B520035
:1012C00001FA02F21A437B68DA607B681A68FB7BDA
:1012D0005B00032101FA03F3DB4313407978FA7BC7
:1012E000520001FA02F21A437B681A607B78012BE4
:1012F00002D07B78022B21D17B685B68FA7B0121CD
:1013000001FA02F292B2D24313403978FA7B01FA21
:1013100002F292B21A437B685A607B689A68FB7B40
:101320005B00032101FA03F3DB431340397FFA7BAF
:10133000520001FA02F21A437B689A60FB7B013388
:10134000FB73FB7B0F2B94D91037BD4680BD00BFCC
:041350003400002045
:101354000000000001020304010203040607080957
:10136400FFFFFFFFFFFFFFFFFFFFFFFF007A030AFE
:101374000000000000000000010203040607080941
:0400000508000000EF
:00000001FF
